:040000008131A7297A
:100008007E1480317F30F00070088B054E010C089B
:100018001605F000F01E11281228A429DF30F00080
:100028007008960501304001D3070030D43D8C1E7E
:100038001E281F2861290C1D2228232849295B080E
:100048005402031D29285A085302031C2C282D2862
:100058000A295C0303193128322837280130A00007
:100068000030A1003B28FF30A000FF30A10020088D
:10007800DC00D301D4015F08F0007008D507033015
:100088005E06031D482849287B285508F000F10121
:10009800F01BF1037108803AF20080307202031DF0
:1000A80057285D08700203185A285B286028400109
:1000B800D51F5F2860280A2940015508F000F10182
:1000C800F01BF1037108803AF20080307202031DC0
:1000D8006F285D087002031C722873287628400177
:1000E800D5010A2940015D08FF3ED5000A295E03B3
:1000F800031D7F288028E62809305D02031885281B
:1001080086288E285D08F000F1017008A2007108A9
:10011800A30092280830A2000030A3005508F00080
:10012800F101F01BF1037108803AF2002308803ACC
:100138007202031DA12822087002031CA428A52806
:10014800B828093040015D02031CAB28AC28B1284F
:100158000230A4000030A500B5280130A40000300A
:10016800A5002408DE0073284001D51FBC28BD283F
:100178000A2909305D02031CC228C328C828023096
:10018800A6000030A700CC280130A6000030A70048
:100198002608DE0009305D02031CD328D428DC2899
:1001A8005D08F73EA800FF3003180030A900E328D7
:1001B8005D08FF3EA800FF3003180030A90028089A
:1001C800D5000A2908305507F000F1010318F10A93
:1001D800D51FEF28F1037108803AF20080307202CF
:1001E800031DF92840015D087002031CFC28FD2846
:1001F80001294001DE01DE0A73284001D51F0529C7
:1002080006290A29DE01DE0A0730D5005308F00066
:100218005408F100F201F30173085902031D1E2965
:1002280072085802031D1E2971085702031D1E2952
:100238007008560203182129222935295E08033936
:10024800F0000630F035890B262955090739F100E9
:100258000230F135FF3E031D2D29713570048E00E3
:100268009A295E080339F0000630F035890B3929E0
:1002780055090739F1000230F135FF3E031D4029C9
:100288007135700401388E009A295E080339F00030
:100298000630F035890B4D2955090739F100023030
:1002A800F135FF3E031D54297135700401388E0065
:1002B800D830D3002730D4009A295E080339F000DB
:1002C8000630F035890B652955090739F1000230E8
:1002D800F135FF3E031D6C29713570048E00D8304E
:1002E800D3002730D4000C1A7A297B298029FF30C3
:1002F800AA00FF30AB0087295D08F000F101700803
:10030800AA007108AB002A08D5000C1A8C298D297F
:1003180092290130AC000030AD0096290230AC00C3
:100328000030AD002C08DE00DC01DC0ADF30F00014
:1003380070084E018C05E1304B019C004E01961669
:100348008B177E1009008131A9298D318C258131C7
:10035800DC008D318D258131DD008D318E25813197
:10036800DE008D318F258131DF00CF01D001D10131
:10037800D201D301D401D5017E1040018E31C02EA7
:1003880008340034083400340834003408340034A5
:100398000834003408340034083400340834003495
:1003A8000834003408340034083400340834003485
:1003B8000834003408340034083400340834003475
:1003C8000834003408340034083400340834003465
:1003D8000834003408340034083400340834003455
:1003E8000834003408340034083400340834003445
:1003F8000834003408340034083400340834003435
:100408000834003408340034083400340834003424
:100418000834003408340034083400340834003414
:100428000834003408340034083400340834003404
:1004380008340034083400340834003408340034F4
:1004480008340034083400340834003408340034E4
:1004580008340034083400340834003408340034D4
:1004680008340034083400340834003408340034C4
:1004780008340034083400340834003408340034B4
:1004880008340034083400340834003408340034A4
:100498000834003408340034083400340834003494
:1004A8000834003408340034083400340834003484
:1004B8000834003408340034083400340834003474
:1004C8000834003408340034083400340834003464
:1004D8000834003408340034083400340834003454
:1004E8000834003408340034083400340834003444
:1004F8000834003408340034093400340934003432
:10050800093400340934003409340034093400341F
:10051800093400340A3400340A3400340A3400340C
:100528000A3400340A3400340A3400340A340034FB
:100538000B3400340B3400340B3400340B340034E7
:100548000B3400340B3400340C3400340C340034D5
:100558000C3400340C3400340C3400340C340034C3
:100568000D3400340D3400340D3400340D340034AF
:100578000D3400340D3400340E3400340E3400349D
:100588000E3400340E3400340E3400340F3400348A
:100598000F3400340F3400340F3400340F34003477
:1005A8001034003410340034103400341034003463
:1005B800113400341134003411340034113400344F
:1005C800113400341234003412340034123400343C
:1005D8001234003413340034133400341334003428
:1005E8001334003414340034143400341434003414
:1005F8001434003415340034153400341534003400
:1006080015340034163400341634003416340034EB
:1006180017340034173400341734003417340034D6
:1006280018340034183400341834003419340034C1
:1006380019340034193400341A3400341A340034AC
:100648001A3400341B3400341B3400341B34003497
:100658001B3400341C3400341C3400341D34003482
:100668001D3400341D3400341E3400341E3400346C
:100678001E3400341F3400341F3400341F34003457
:100688002034003420340034203400342134003441
:10069800213400342234003422340034223400342B
:1006A8002334003423340034243400342434003414
:1006B80024340034253400342534003426340034FE
:1006C80026340034273400342734003428340034E6
:1006D80028340034283400342934003429340034D0
:1006E8002A3400342A3400342B3400342B340034B8
:1006F8002C3400342C3400342D3400342D340034A0
:100708002E3400342E3400342F3400342F34003487
:10071800303400343034003431340034313400346F
:100728003234003432340034333400343434003456
:10073800343400343534003435340034363400343D
:100748003634003437340034383400343834003424
:1007580039340034393400343A3400343B3400340A
:100768003B3400343C3400343D3400343D340034F0
:100778003E3400343F3400343F34003440340034D5
:1007880041340034413400344234003443340034BA
:1007980043340034443400344534003445340034A0
:1007A8004634003447340034483400344834003484
:1007B800493400344A3400344B3400344B34003468
:1007C8004C3400344D3400344E3400344E3400344C
:1007D8004F3400345034003451340034523400342F
:1007E8005234003453340034543400345534003413
:1007F80056340034573400345734003458340034F5
:10080800593400345A3400345B3400345C340034D6
:100818005D3400345E3400345F34003460340034B6
:10082800603400346134003462340034633400349A
:10083800643400346534003466340034673400347A
:1008480068340034693400346A3400346B3400345A
:100858006C3400346D3400346E3400346F3400343A
:100868007134003472340034733400347434003416
:1008780075340034763400347734003478340034F6
:10088800793400347A3400347C3400347D340034D4
:100898007E3400347F3400348034003481340034B2
:1008A800833400348434003485340034863400348E
:1008B80088340034893400348A3400348B3400346A
:1008C8008D3400348E3400348F3400349134003445
:1008D8009234003493340034953400349634003420
:1008E80097340034993400349A3400349B340034FB
:1008F8009D3400349E340034A0340034A1340034D4
:10090800A2340034A4340034A5340034A7340034AD
:10091800A8340034AA340034AB340034AD34003485
:10092800AE340034B0340034B1340034B33400345D
:10093800B5340034B6340034B8340034B934003433
:10094800BB340034BD340034BE340034C034003409
:10095800C2340034C3340034C5340034C7340034DE
:10096800C8340034CA340034CC340034CE340034B3
:10097800CF340034D1340034D3340034D534003487
:10098800D7340034D8340034DA340034DC3400345A
:10099800DE340034E0340034E2340034E43400342B
:1009A800E6340034E8340034E9340034EB340034FD
:1009B800ED340034EF340034F1340034F3340034CF
:1009C800F5340034F7340034FA340034FC3400349D
:1009D800FE34003400340134023401340434013468
:1009E80006340134083401340B3401340D34013435
:1009F8000F34013411340134133401341634013402
:100A0800183401341A3401341C3401341F340134CD
:100A18002134013423340134263401342834013498
:100A28002B3401342D3401342F3401343234013461
:100A38003434013437340134393401343C3401342A
:100A48003E340134413401344334013446340134F2
:100A5800493401344B3401344E34013450340134B8
:100A68005334013456340134583401345B3401347E
:100A78005E34013461340134633401346634013442
:100A8800693401346C3401346F3401347134013405
:100A980074340134773401347A3401347D340134C8
:100AA8008034013483340134863401348934013488
:100AB8008C3401348F340134923401349534013448
:100AC800983401349B3401349F340134A234013406
:100AD800A5340134A8340134AB340134AF340134C3
:100AE800B2340134B5340134B8340134BC3401347F
:100AF800BF340134C2340134C6340134C93401343A
:100B0800CD340134D0340134D4340134D7340134F1
:100B1800DB340134DE340134E2340134E5340134A9
:100B2800E9340134ED340134F0340134F43401345F
:100B3800F8340134FB340134FF3401340334023413
:100B4800073402340A3402340E34023412340234C4
:100B5800163402341A3402341E3402342234023475
:100B6800263402342A3402342E3402343234023425
:100B7800363402343A3402343E34023442340234D5
:100B8800463402344B3402344F3402345334023482
:100B9800573402345C34023460340234643402342E
:100BA800693402346D3402347234023476340234D7
:100BB8007A3402347F340234843402348834023480
:100BC8008D34023491340234963402349B34023426
:100BD8009F340234A4340234A9340234AE340234CB
:100BE800B2340234B7340234BC340234C13402346F
:100BF800C6340234CB340234D0340234D53402340F
:100C0800DA340234DF340234E4340234E9340234AE
:100C1800EE340234F3340234F9340234FE3402344C
:100C280003340334083403340E34033413340334E4
:100C3800183403341E34033423340334293403347E
:100C48002E34033434340334393403343F34033416
:100C5800453403344A3403345034033456340334AB
:100C68005C34033461340334673403346D3403343F
:100C780073340334793403347F34033485340334D0
:100C88008B34033491340334973403349D34033460
:100C9800A3340334AA340334B0340334B6340334ED
:100CA800BC340334C3340334C9340334D034033478
:100CB800D6340334DD340334E3340334EA34033400
:100CC800F0340334F7340334FD3403340434043487
:100CD8000B34043412340434183404341F34043408
:100CE800263404342D340434343404343B3404348A
:100CF800423404344934043450340434573404340A
:100D08005F340434663404346D3404347434043485
:100D18007C340434833404348B34043492340434FF
:100D280099340434A1340434A9340434B034043478
:100D3800B8340434C0340434C7340434CF340434ED
:100D4800D7340434DF340434E7340434EF3404345F
:100D5800F7340434FF340434073405340F340534CD
:100D6800173405341F34053427340534303405343A
:100D780038340534403405344934053451340534A5
:100D88005A340534623405346B340534743405340C
:100D98007C340534853405348E3405349734053471
:100DA800A0340534A8340534B1340534BA340534D4
:100DB800C3340534CD340534D6340534DF34053432
:100DC800E8340534F1340534FB340534043406348E
:100DD8000E34063417340634213406342A340634E3
:100DE800343406343D34063447340634513406343A
:100DF8005B340634653406346E340634783406348D
:100E0800823406348D34063497340634A1340634DB
:100E1800AB340634B5340634C0340634CA34063428
:100E2800D4340634DF340634E9340634F434063472
:100E3800FF34063409340734143407341F340734B4
:100E48002A34073435340734403407344B340734F4
:100E580056340734613407346C3407347734073434
:100E6800823407348E34073499340734A534073470
:100E7800B0340734BC340734C7340734D3340734A8
:100E8800DF340734EB340734F634073402340834DB
:100E98000E3408341A340834263408343334083409
:100EA8003F3408344B340834573408346434083435
:100EB800703408347D34083489340834963408345E
:100EC800A2340834AF340834BC340834C934083484
:100ED800D6340834E3340834F0340834FD340834A4
:100EE8000A340934173409342534093432340934BE
:100EF8003F3409344D3409345A34093468340934D8
:100F08007634093483340934913409349F340934EC
:100F1800AD340934BB340934C9340934D7340934FD
:100F2800E5340934F434093402340A3410340A3408
:100F38001F340A342D340A343C340A344B340A340E
:100F48005A340A3468340A3477340A3486340A3412
:100F580095340A34A4340A34B3340A34C3340A3412
:100F6800D2340A34E1340A34F1340A3400340B340C
:100F780010340B3420340B342F340B343F340B34FF
:100F88004F340B345F340B346F340B347F340B34F1
:100F98008F340B349F340B34B0340B34C0340B34DF
:100FA800D1340B34E1340B34F2340B3402340C34C6
:100FB80013340C3424340C3435340C3446340C34A7
:100FC80057340C3468340C3479340C348B340C3486
:100FD8009C340C34AD340C34BF340C34D1340C3460
:100FE800E2340C34F4340C3406340D3418340D3433
:100FF8002A340D343C340D344E340D3460340D3401
:1010080073340D3485340D3498340D34AA340D34CA
:10101800BD340D34D0340D34E3340D34F5340D348F
:1010280008340E341C340E342F340E3442340E344B
:1010380055340E3469340E347C340E3490340E3406
:10104800A4340E34B7340E34CB340E34DF340E34BB
:10105800F3340E3407340F341B340F3430340F3468
:1010680044340F3459340F346D340F3482340F3410
:1010780097340F34AB340F34C0340F34D5340F34B5
:10108800EA340F3400341034153410342A34103450
:1010980040341034553410346B34103481341034E7
:1010A80097341034AD341034C3341034D934103478
:1010B800EF341034053411341C3411343234113403
:1010C800493411345F341134763411348D34113489
:1010D800A4341134BB341134D2341134EA34113409
:1010E800013412341934123430341234483412347E
:1010F800603412347834123490341234A8341234F0
:10110800C0341234D8341234F1341234093413345C
:10111800223413343A341334533413346C341334C0
:10112800853413349E341334B7341334D134133420
:10113800EA341334043414341D3414343734143476
:10114800513414346B341434853414349F341434C7
:10115800BA341434D4341434EF3414340934153410
:10116800243415343F3415345A3415347534153451
:1011780090341534AB341534C7341534E23415348F
:10118800FE3415341A3416343534163451341634C2
:101198006D3416348A341634A6341634C2341634F0
:1011A800DF341634FC341634183417343534173415
:1011B80052341734703417348D341734AA34173432
:1011C800C8341734E5341734033418342134183448
:1011D8003F3418345D3418347B3418349934183457
:1011E800B8341834D7341834F5341834143419345E
:1011F800333419345234193471341934913419345C
:10120800B0341934D0341934EF3419340F341A3453
:101218002F341A344F341A346F341A3490341A3441
:10122800B0341A34D1341A34F2341A3412341B3428
:1012380033341B3455341B3476341B3497341B3405
:10124800B9341B34DA341B34FC341B341E341C34DC
:1012580040341C3462341C3485341C34A7341C34A8
:10126800CA341C34EC341C340F341D3432341D346D
:1012780055341D3479341D349C341D34C0341D3428
:10128800E3341D3407341E342B341E344F341E34DB
:1012980073341E3498341E34BC341E34E1341E3486
:1012A80006341F342B341F3450341F3475341F3424
:1012B8009B341F34C0341F34E6341F340C342034BC
:1012C80032342034583420347E342034A43420344A
:1012D800CB342034F2342034183421343F342134D0
:1012E800673421348E342134B5342134DD3421344B
:1012F800053422342D342234553422347D342234BA
:10130800A5342234CE342234F63422341F34233424
:1013180048342334713423349B342334C434233481
:10132800EE34233417342434413424346B342434D5
:1013380096342434C0342434EB342434153425341E
:10134800403425346B34253496342534C23425345E
:10135800ED34253419342634453426347134263492
:101368009D342634C9342634F634263423342734BD
:101378004F3427347C342734AA342734D7342734DD
:101B180001340834013401347F30F40074088B0533
:101B280080304B019E0045309F00DF30F400740880
:101B38004E019605DF30F40074088C05E1304B0146
:101B48009C004E0196168B170800F5007508410198
:101B58009D000530890BAE2D0000F5147508410174
:101B68009D000A30890BB62D41011D08F400013093
:101B7800F436890BBC2D7418C22DC32DB82D1C0842
:101B88004001AF0041011B084001AE0008000530CC
:101B98005101930006304F01960086309700473078
:101BA80098003F309900D1309A001E309B004601C2
:101BB8008E0192014301900101308B0034304001C5
:101BC800920034307E01B900F030400193000630B5
:101BD80094007E01B801F030C300CE0140304101CD
:101BE8009D00D0309E0040018C018D018E010800BF
:101BF8000030F9000030F8000030F7000030F6003F
:101C08004001301C082E092E112E3408F60735081D
:101C1800F73D3608F83D3708F93D0130B435B50DC4
:101C2800B60DB70D890B122E0130B336B20CB10CBC
:101C3800B00C890B192E3308320431043004031D0B
:101C4800262E272E042E7908B3007808B2007708CC
:101C5800B1007608B00008004001C201BB1F352E54
:101C6800362E432EB809B909BA09BB09B80A0319AF
:101C7800B90A0319BA0A0319BB0AC201C20ABF1F6B
:101C8800462E472E562EBC09BD09BE09BF09BC0AFF
:101C98000319BD0A0319BE0A0319BF0A0130C0009F
:101CA8004008C2060030C6000030C5000030C4003D
:101CB8000030C3003B083A04390438040319652E80
:101CC800662EA72EC101C10A742E0130B835B90D90
:101CD800BA0DBB0D890B6A2E0130C0004008C10740
:101CE800BB1F772E782E692E0130C335C40DC50D64
:101CF800C60D890B792E3B083F02031D8D2E3A082D
:101D08003E02031D8D2E39083D02031D8D2E380815
:101D18003C02031C902E912E9A2E3808BC023908DA
:101D2800BD3B3A08BE3B3B08BF3B43140130BB36C2
:101D3800BA0CB90CB80C890B9B2E0130C102031DDB
:101D4800A62EA72E782E42080319AB2EAC2EB72E3E
:101D5800C309C409C509C609C30A0319C40A031972
:101D6800C50A0319C60A4608BB004508BA00440854
:101D7800B9004308B80008008D31CB258E318D316C
:101D880090258E3135308D31A9258E3140012F08AF
:101D980085002E0884008435850DC4308407013001
:101DA800053D80388500003FDA00013FDB00003048
:101DB800BB000030BA000330B900FF30B800313042
:101DC8008D31A9258E31FF304001C7000330C8008E
:101DD8002E084702C9002F08483BCA004908B0002E
:101DE8004A08B100890D893B8909B200B3005A0835
:101DF800B4005B08B500B601B7018D31FC258E3102
:101E080040013308BF003208BE003108BD00300869
:101E1800BC008E3130268E3140013808D600390892
:101E2800D700890D893B8909D800D9005908031DB5
:101E3800282F5808031D282F5708031D282F043062
:101E480056020318282F292F322F00304001D900BD
:101E58000030D8000030D7000430D60040015A08BE
:101E6800FC3EC700FF305B3DC8004708C900480872
:101E7800CA00CB01CC0159084C02031D4D2F58084C
:101E88004B02031D4D2F57084A02031D4D2F5608BC
:101E980049020318502F512F592F5A08FC3ED600DB
:101EA800FF305B3DD700D801D9010C1A5C2F5D2F9C
:101EB800622F0130CD000030CE00662FFF30CD00FC
:101EC800FF30CE004D08DF008E186B2F6C2F6F2F60
:101ED8000330DE00772F03305E06031D742F752F45
:101EE800772FDE01DE0A39308D31A9258E31FF309A
:101EF8004001C7000330C8002E084702C9002F0858
:101F0800483BCA000630CB004A0DCA0CC90CCB0BA3
:101F1800882F4908013EDD0003305E06031D952F1A
:101F2800962F982F5D36DD000030BB000030BA00D8
:101F38000730B900FE30B8003D308D31A9258E310B
:101F4800FF304001C7000330C8002E084702C9000F
:101F58002F08483BCA004908B0004A08B100890D5B
:101F6800893B8909B200B3005A08B4005B08B50080
:101F7800B601B7018D31FC258E3140013308BF0011
:101F88003208BE003108BD003008BC008E31302652
:101F98008E3140013808CF003908D000890D893BBF
:101FA8008909D100D2005A08F83EC700FF305B3DCE
:101FB800C8004708C9004808CA00CB01CC0152082C
:101FC8004C02031DF12F51084B02031DF12F50083D
:101FD8004A02031DF12F4F0849020318F42FF52F69
:101FE800C62E5A08F83ECF00FF305B3DD000D10125
:081FF800D201C62E8131A72998
:020000040001F9
:08000000FF3FFF3FFF3FFF3F00
:0A000E008C3F3D3F9F3FFF1FFF3F67
:00000001FF
